:100000000C942A000C9434000C9434000C943400AA
:100010000C9434000C9434000C9434000C94340090
:100020000C9434000C9434000C9434000C94340080
:100030000C9434000C9434000C9434000C94340070
:100040000C9434000C9434000C9434000C94340060
:100050000C94340011241FBECFE5D8E0DEBFCDBF25
:100060000E944C000C945D000C94000081E08ABB5F
:100070008BBB089581E08ABB8BBB08958BB391E065
:1000800089278BBB80E197E229E130E0F9013197C4
:10009000F1F70197D9F7089581E08ABB8BBB41E066
:1000A00029E130E08BB384278BBB80E197E2F90133
:0E00B0003197F1F70197D9F7F5CFF894FFCF0C
:00000001FF
