:100000000C942A000C9434000C9434000C943400AA
:100010000C9434000C9434000C9434000C94340090
:100020000C9434000C9434000C9434000C94340080
:100030000C9434000C9434000C9434000C94340070
:100040000C9434000C9434000C9434000C94340060
:100050000C94340011241FBECFE5D8E0DEBFCDBF25
:100060000E9459000C946B000C940000FC0181E08C
:100070008083D09A8BBB0895FC0181E08083D09A65
:100080008BBB0895FC018BB3908189278BBB80E1EA
:1000900097E229E130E0F9013197F1F70197D9F7BB
:1000A0000895FC01693020F48AB3862B8ABB6083F3
:1000B0000895D09A81E08BBBD19A42E029E130E0EB
:1000C0008BB384278BBB80E197E2F9013197F1F77D
:0A00D0000197D9F7F5CFF894FFCFA0
:00000001FF
