:100000000C942A000C9434000C9434000C943400AA
:100010000C9434000C9434000C9434000C94340090
:100020000C9434000C9434000C9434000C94340080
:100030000C9434000C9434000C9434000C94340070
:100040000C9434000C9434000C9434000C94340060
:100050000C94340011241FBECFE5D8E0DEBFCDBF25
:100060000E9436000C948F000C9400000F931F9395
:10007000DF93CF930F92CDB7DEB78E010F5F1F4F87
:10008000C8010E945800C80162E00E9474008E01FD
:100090000F5F1F4FC8010E946200FCCFFC0191E07E
:1000A0009083EAE3F0E08081816080839BBB0895C8
:1000B000FC0191E09083EAE3F0E08081816080833D
:1000C0009BBB0895DC01EBE3F0E080819C918927E4
:1000D000808320E137E249E150E0CA010197F1F75E
:1000E00021503040D1F70895DC016930B8F4EBE3DA
:1000F000F0E040812C9130E02150304081E090E0F0
:1001000002C0880F991F2A95E2F780958423808387
:10011000EAE3F0E08081862B80836C930895F89465
:02012000FFCF0F
:00000001FF
